{
  "transactions": [
    {
      "hash": "0x2d4e6d2a92303e269bbff1fe46894267f7b267df44b3162ccc423de70e80997f",
      "transactionType": "CALL",
      "contractName": null,
      "contractAddress": "0x7b79995e5f793a07bc00c21412e50ecae098e7f9",
      "function": "approve(address,uint256)",
      "arguments": [
        "0x9072d9a817786797B85e542CF81b871303585AA3",
        "1000000000"
      ],
      "transaction": {
        "from": "0xd25efe77f81ca21bf470ae1239489164eabcb6fe",
        "to": "0x7b79995e5f793a07bc00c21412e50ecae098e7f9",
        "gas": "0xf82b",
        "value": "0x0",
        "input": "0x095ea7b30000000000000000000000009072d9a817786797b85e542cf81b871303585aa3000000000000000000000000000000000000000000000000000000003b9aca00",
        "nonce": "0x2a",
        "chainId": "0xaa36a7"
      },
      "additionalContracts": [],
      "isFixedGasLimit": false
    },
    {
      "hash": "0x7da740f8662725587432f97167e648459d139a9dc431e64f63995a61da5584c2",
      "transactionType": "CALL",
      "contractName": null,
      "contractAddress": "0x9072d9a817786797b85e542cf81b871303585aa3",
      "function": "depositCollateral(address,uint256)",
      "arguments": [
        "0x7b79995e5f793A07Bc00c21412e50Ecae098E7f9",
        "1000000000"
      ],
      "transaction": {
        "from": "0xd25efe77f81ca21bf470ae1239489164eabcb6fe",
        "to": "0x9072d9a817786797b85e542cf81b871303585aa3",
        "gas": "0x1e2db",
        "value": "0x0",
        "input": "0xa5d5db0c0000000000000000000000007b79995e5f793a07bc00c21412e50ecae098e7f9000000000000000000000000000000000000000000000000000000003b9aca00",
        "nonce": "0x2b",
        "chainId": "0xaa36a7"
      },
      "additionalContracts": [],
      "isFixedGasLimit": false
    }
  ],
  "receipts": [
    {
      "status": "0x1",
      "cumulativeGasUsed": "0x70ffa7",
      "logs": [
        {
          "address": "0x7b79995e5f793a07bc00c21412e50ecae098e7f9",
          "topics": [
            "0x8c5be1e5ebec7d5bd14f71427d1e84f3dd0314c0f7b2291e5b200ac8c7c3b925",
            "0x000000000000000000000000d25efe77f81ca21bf470ae1239489164eabcb6fe",
            "0x0000000000000000000000009072d9a817786797b85e542cf81b871303585aa3"
          ],
          "data": "0x000000000000000000000000000000000000000000000000000000003b9aca00",
          "blockHash": "0x4a3dd09a436e86cbbe489cbb5fb8709d3a8e3ff1176c25167a10a98ae2653254",
          "blockNumber": "0x6163dc",
          "transactionHash": "0x2d4e6d2a92303e269bbff1fe46894267f7b267df44b3162ccc423de70e80997f",
          "transactionIndex": "0x47",
          "logIndex": "0x5d",
          "removed": false
        }
      ],
      "logsBloom": "0x00000000000000000000000000000000000000000000000000000004000000000000000000000000000000000000000000000000000000020001000000200080100000000000000000000000000000000000000000010000000000000000000000000000000000000000000000000000000000000000000000000000000000000000000000000000000000000000000000000000000000000000000000000000020000000000000000000000000000080000000000000000000000000000000000000002000000000000000000000000000000000000000001000000000000000010000000000000000000000000000000000000000000000000000000000000",
      "type": "0x2",
      "transactionHash": "0x2d4e6d2a92303e269bbff1fe46894267f7b267df44b3162ccc423de70e80997f",
      "transactionIndex": "0x47",
      "blockHash": "0x4a3dd09a436e86cbbe489cbb5fb8709d3a8e3ff1176c25167a10a98ae2653254",
      "blockNumber": "0x6163dc",
      "gasUsed": "0xb3ac",
      "effectiveGasPrice": "0x8d594c1f",
      "from": "0xd25efe77f81ca21bf470ae1239489164eabcb6fe",
      "to": "0x7b79995e5f793a07bc00c21412e50ecae098e7f9",
      "contractAddress": null
    },
    {
      "status": "0x1",
      "cumulativeGasUsed": "0x7249d0",
      "logs": [
        {
          "address": "0x9072d9a817786797b85e542cf81b871303585aa3",
          "topics": [
            "0xf1c0dd7e9b98bbff859029005ef89b127af049cd18df1a8d79f0b7e019911e56",
            "0x000000000000000000000000d25efe77f81ca21bf470ae1239489164eabcb6fe",
            "0x0000000000000000000000007b79995e5f793a07bc00c21412e50ecae098e7f9",
            "0x000000000000000000000000000000000000000000000000000000003b9aca00"
          ],
          "data": "0x",
          "blockHash": "0x4a3dd09a436e86cbbe489cbb5fb8709d3a8e3ff1176c25167a10a98ae2653254",
          "blockNumber": "0x6163dc",
          "transactionHash": "0x7da740f8662725587432f97167e648459d139a9dc431e64f63995a61da5584c2",
          "transactionIndex": "0x48",
          "logIndex": "0x5e",
          "removed": false
        },
        {
          "address": "0x7b79995e5f793a07bc00c21412e50ecae098e7f9",
          "topics": [
            "0xddf252ad1be2c89b69c2b068fc378daa952ba7f163c4a11628f55a4df523b3ef",
            "0x000000000000000000000000d25efe77f81ca21bf470ae1239489164eabcb6fe",
            "0x0000000000000000000000009072d9a817786797b85e542cf81b871303585aa3"
          ],
          "data": "0x000000000000000000000000000000000000000000000000000000003b9aca00",
          "blockHash": "0x4a3dd09a436e86cbbe489cbb5fb8709d3a8e3ff1176c25167a10a98ae2653254",
          "blockNumber": "0x6163dc",
          "transactionHash": "0x7da740f8662725587432f97167e648459d139a9dc431e64f63995a61da5584c2",
          "transactionIndex": "0x48",
          "logIndex": "0x5f",
          "removed": false
        }
      ],
      "logsBloom": "0x00000000000000000000000000000000000000002000000000000004000000000000000000000002000000000000000000000000000000020001000000000080100000000000000000000048000000000000004000010000000000000000000001000000000000000800000000000000000000000000000000000010000000000000000000000000000000000000000000000000000000000010000000000000000400000000000000000000000000080000000000000000000000000000000000000002000000000000000000000000010000000020000881000000000000000000000000000000000000000000000000000000000000000000000000000000",
      "type": "0x2",
      "transactionHash": "0x7da740f8662725587432f97167e648459d139a9dc431e64f63995a61da5584c2",
      "transactionIndex": "0x48",
      "blockHash": "0x4a3dd09a436e86cbbe489cbb5fb8709d3a8e3ff1176c25167a10a98ae2653254",
      "blockNumber": "0x6163dc",
      "gasUsed": "0x14a29",
      "effectiveGasPrice": "0x8d594c1f",
      "from": "0xd25efe77f81ca21bf470ae1239489164eabcb6fe",
      "to": "0x9072d9a817786797b85e542cf81b871303585aa3",
      "contractAddress": null
    }
  ],
  "libraries": [],
  "pending": [],
  "returns": {},
  "timestamp": 1722047871,
  "chain": 11155111,
  "commit": "35249d9"
}