{
  "transactions": [
    {
      "hash": null,
      "transactionType": "CALL",
      "contractName": null,
      "contractAddress": "0x7b79995e5f793a07bc00c21412e50ecae098e7f9",
      "function": "approve(address,uint256)",
      "arguments": [
        "0x9072d9a817786797B85e542CF81b871303585AA3",
        "1"
      ],
      "transaction": {
        "from": "0xf39fd6e51aad88f6f4ce6ab8827279cfffb92266",
        "to": "0x7b79995e5f793a07bc00c21412e50ecae098e7f9",
        "gas": "0xf80a",
        "value": "0x0",
        "input": "0x095ea7b30000000000000000000000009072d9a817786797b85e542cf81b871303585aa30000000000000000000000000000000000000000000000000000000000000001",
        "nonce": "0x2672",
        "chainId": "0xaa36a7"
      },
      "additionalContracts": [],
      "isFixedGasLimit": false
    },
    {
      "hash": null,
      "transactionType": "CALL",
      "contractName": null,
      "contractAddress": "0x9072d9a817786797b85e542cf81b871303585aa3",
      "function": "depositCollateral(address,uint256)",
      "arguments": [
        "0x7b79995e5f793A07Bc00c21412e50Ecae098E7f9",
        "1"
      ],
      "transaction": {
        "from": "0xf39fd6e51aad88f6f4ce6ab8827279cfffb92266",
        "to": "0x9072d9a817786797b85e542cf81b871303585aa3",
        "gas": "0x1e2b8",
        "value": "0x0",
        "input": "0xa5d5db0c0000000000000000000000007b79995e5f793a07bc00c21412e50ecae098e7f90000000000000000000000000000000000000000000000000000000000000001",
        "nonce": "0x2673",
        "chainId": "0xaa36a7"
      },
      "additionalContracts": [],
      "isFixedGasLimit": false
    }
  ],
  "receipts": [],
  "libraries": [],
  "pending": [],
  "returns": {},
  "timestamp": 1722033820,
  "chain": 11155111,
  "commit": "35249d9"
}