{
  "transactions": [
    {
      "hash": "0x17d22ad2386e00f001a00391dc05d230a582eff0e60bfeb65586e63412c15603",
      "transactionType": "CALL",
      "contractName": null,
      "contractAddress": "0x9072d9a817786797b85e542cf81b871303585aa3",
      "function": "mintDsc(uint256)",
      "arguments": [
        "1000000000000"
      ],
      "transaction": {
        "from": "0xd25efe77f81ca21bf470ae1239489164eabcb6fe",
        "to": "0x9072d9a817786797b85e542cf81b871303585aa3",
        "gas": "0x24fe8",
        "value": "0x0",
        "input": "0xc9b7c327000000000000000000000000000000000000000000000000000000e8d4a51000",
        "nonce": "0x2d",
        "chainId": "0xaa36a7"
      },
      "additionalContracts": [],
      "isFixedGasLimit": false
    }
  ],
  "receipts": [
    {
      "status": "0x1",
      "cumulativeGasUsed": "0xb97768",
      "logs": [
        {
          "address": "0xb92d164e5c9ba23e9969964b52ce9a9760f7487c",
          "topics": [
            "0xddf252ad1be2c89b69c2b068fc378daa952ba7f163c4a11628f55a4df523b3ef",
            "0x0000000000000000000000000000000000000000000000000000000000000000",
            "0x000000000000000000000000d25efe77f81ca21bf470ae1239489164eabcb6fe"
          ],
          "data": "0x000000000000000000000000000000000000000000000000000000e8d4a51000",
          "blockHash": "0x9bc4045cb6e2e22280c9bbb7b67d8fe910e943059c90d9fc2a089d074e6fcee1",
          "blockNumber": "0x616488",
          "transactionHash": "0x17d22ad2386e00f001a00391dc05d230a582eff0e60bfeb65586e63412c15603",
          "transactionIndex": "0x4c",
          "logIndex": "0xb3",
          "removed": false
        }
      ],
      "logsBloom": "0x00000000000000000000000000000000000000000000000000000000000000000000000000000000000000000000000000000000000000020000000000000000000000000000000000000048000000000000000000010000000000000000000000000000020000000000000000000800000000000000000000000010000000000000000000000000000000000000000000000000000000000000000000001000000000000000000000000000000000000000000000000000000000000000000000000002000000000000000000000000000000000000000001000000000020000000000000000000000000000000000000000000004000000000000000000000",
      "type": "0x2",
      "transactionHash": "0x17d22ad2386e00f001a00391dc05d230a582eff0e60bfeb65586e63412c15603",
      "transactionIndex": "0x4c",
      "blockHash": "0x9bc4045cb6e2e22280c9bbb7b67d8fe910e943059c90d9fc2a089d074e6fcee1",
      "blockNumber": "0x616488",
      "gasUsed": "0x1ac88",
      "effectiveGasPrice": "0x4702baa3",
      "from": "0xd25efe77f81ca21bf470ae1239489164eabcb6fe",
      "to": "0x9072d9a817786797b85e542cf81b871303585aa3",
      "contractAddress": null
    }
  ],
  "libraries": [],
  "pending": [],
  "returns": {},
  "timestamp": 1722050155,
  "chain": 11155111,
  "commit": "35249d9"
}