{
  "transactions": [
    {
      "hash": "0x1492dd44125dcf7fd5c64b75b82d30b8f5b67ef762d49f78c5fa23933008f768",
      "transactionType": "CALL",
      "contractName": null,
      "contractAddress": "0x9072d9a817786797b85e542cf81b871303585aa3",
      "function": "mintDsc(uint256)",
      "arguments": [
        "1000000000"
      ],
      "transaction": {
        "from": "0xd25efe77f81ca21bf470ae1239489164eabcb6fe",
        "to": "0x9072d9a817786797b85e542cf81b871303585aa3",
        "gas": "0x364a2",
        "value": "0x0",
        "input": "0xc9b7c327000000000000000000000000000000000000000000000000000000003b9aca00",
        "nonce": "0x2c",
        "chainId": "0xaa36a7"
      },
      "additionalContracts": [],
      "isFixedGasLimit": false
    }
  ],
  "receipts": [
    {
      "status": "0x1",
      "cumulativeGasUsed": "0x7792a7",
      "logs": [
        {
          "address": "0xb92d164e5c9ba23e9969964b52ce9a9760f7487c",
          "topics": [
            "0xddf252ad1be2c89b69c2b068fc378daa952ba7f163c4a11628f55a4df523b3ef",
            "0x0000000000000000000000000000000000000000000000000000000000000000",
            "0x000000000000000000000000d25efe77f81ca21bf470ae1239489164eabcb6fe"
          ],
          "data": "0x000000000000000000000000000000000000000000000000000000003b9aca00",
          "blockHash": "0xceceff6a327e66b8bfbbcc4f126b69678a75f5461fb9bc6c391b1de55120fc5d",
          "blockNumber": "0x616479",
          "transactionHash": "0x1492dd44125dcf7fd5c64b75b82d30b8f5b67ef762d49f78c5fa23933008f768",
          "transactionIndex": "0x34",
          "logIndex": "0x6c",
          "removed": false
        }
      ],
      "logsBloom": "0x00000000000000000000000000000000000000000000000000000000000000000000000000000000000000000000000000000000000000020000000000000000000000000000000000000048000000000000000000010000000000000000000000000000020000000000000000000800000000000000000000000010000000000000000000000000000000000000000000000000000000000000000000001000000000000000000000000000000000000000000000000000000000000000000000000002000000000000000000000000000000000000000001000000000020000000000000000000000000000000000000000000004000000000000000000000",
      "type": "0x2",
      "transactionHash": "0x1492dd44125dcf7fd5c64b75b82d30b8f5b67ef762d49f78c5fa23933008f768",
      "transactionIndex": "0x34",
      "blockHash": "0xceceff6a327e66b8bfbbcc4f126b69678a75f5461fb9bc6c391b1de55120fc5d",
      "blockNumber": "0x616479",
      "gasUsed": "0x274e0",
      "effectiveGasPrice": "0x89741d61",
      "from": "0xd25efe77f81ca21bf470ae1239489164eabcb6fe",
      "to": "0x9072d9a817786797b85e542cf81b871303585aa3",
      "contractAddress": null
    }
  ],
  "libraries": [],
  "pending": [],
  "returns": {},
  "timestamp": 1722049973,
  "chain": 11155111,
  "commit": "35249d9"
}